{
  "address": "0x88fa51196B4F87AF9f99a9d21f71eD5769bb1Aba",
  "abi": [
    {
      "inputs": [],
      "name": "flipValid",
      "outputs": [],
      "stateMutability": "nonpayable",
      "type": "function"
    },
    {
      "inputs": [],
      "name": "valid",
      "outputs": [
        {
          "internalType": "bool",
          "name": "",
          "type": "bool"
        }
      ],
      "stateMutability": "view",
      "type": "function"
    },
    {
      "inputs": [
        {
          "internalType": "uint256",
          "name": "nullifierSeed",
          "type": "uint256"
        },
        {
          "internalType": "uint256",
          "name": "nullifier",
          "type": "uint256"
        },
        {
          "internalType": "uint256",
          "name": "timestamp",
          "type": "uint256"
        },
        {
          "internalType": "uint256",
          "name": "signal",
          "type": "uint256"
        },
        {
          "internalType": "uint256[4]",
          "name": "revealArray",
          "type": "uint256[4]"
        },
        {
          "internalType": "uint256[8]",
          "name": "groth16Proof",
          "type": "uint256[8]"
        }
      ],
      "name": "verifyAnonAadhaarProof",
      "outputs": [
        {
          "internalType": "bool",
          "name": "",
          "type": "bool"
        }
      ],
      "stateMutability": "view",
      "type": "function"
    }
  ],
  "transactionHash": "0x2aa900dbad8b760208bf5b1a0163515b89b0a9683cf62188ea9d56c801578b48",
  "args": [],
  "numDeployments": 1,
  "bytecode": "0x60806040526000805460ff1916600117905534801561001d57600080fd5b5061021c8061002d6000396000f3fe608060405234801561001057600080fd5b50600436106100415760003560e01c80633d45d9ea1461004657806350de0e571461005f578063c199121914610091575b600080fd5b61005d6000805460ff19811660ff90911615179055565b005b61007d61006d36600461013e565b60005460ff169695505050505050565b604051901515815260200160405180910390f35b60005461007d9060ff1681565b634e487b7160e01b600052604160045260246000fd5b6040516080810167ffffffffffffffff811182821017156100d7576100d761009e565b60405290565b600060405161010080820182811067ffffffffffffffff821117156101045761010461009e565b604052909150819083018481111561011b57600080fd5b835b8181101561013557803583526020928301920161011d565b50505092915050565b600080600080600080610200878903121561015857600080fd5b863595506020808801359550604088013594506060880135935088609f89011261018157600080fd5b6101896100b4565b806101008a018b81111561019c57600080fd5b60808b015b818110156101b857803584529284019284016101a1565b508195508b61011f8c01126101cc57600080fd5b6101d68c826100dd565b945050505050929550929550929556fea2646970667358221220805e8d4c5ce557be7fe506854dbf78e078282135c122dcb473e92959b18ea10864736f6c63430008140033"
}